{
  "address": "0x9fE46736679d2D9a65F0992F2272dE9f3c7fa6e0",
  "abi": [
    {
      "inputs": [],
      "name": "NotOwner",
      "type": "error"
    },
    {
      "anonymous": false,
      "inputs": [
        {
          "indexed": true,
          "internalType": "address",
          "name": "caller",
          "type": "address"
        },
        {
          "indexed": false,
          "internalType": "uint256",
          "name": "amount",
          "type": "uint256"
        }
      ],
      "name": "Pledge",
      "type": "event"
    },
    {
      "anonymous": false,
      "inputs": [
        {
          "indexed": false,
          "internalType": "uint256",
          "name": "goal",
          "type": "uint256"
        },
        {
          "indexed": false,
          "internalType": "uint32",
          "name": "end",
          "type": "uint32"
        }
      ],
      "name": "ValueChanged",
      "type": "event"
    },
    {
      "inputs": [],
      "name": "balanceOf",
      "outputs": [
        {
          "internalType": "uint256",
          "name": "",
          "type": "uint256"
        }
      ],
      "stateMutability": "view",
      "type": "function"
    },
    {
      "inputs": [],
      "name": "getContractBalance",
      "outputs": [
        {
          "internalType": "uint256",
          "name": "",
          "type": "uint256"
        }
      ],
      "stateMutability": "view",
      "type": "function"
    },
    {
      "inputs": [],
      "name": "getEDate",
      "outputs": [
        {
          "internalType": "uint32",
          "name": "",
          "type": "uint32"
        }
      ],
      "stateMutability": "view",
      "type": "function"
    },
    {
      "inputs": [],
      "name": "getGoal",
      "outputs": [
        {
          "internalType": "uint256",
          "name": "",
          "type": "uint256"
        }
      ],
      "stateMutability": "view",
      "type": "function"
    },
    {
      "inputs": [],
      "name": "getOwner",
      "outputs": [
        {
          "internalType": "address",
          "name": "",
          "type": "address"
        }
      ],
      "stateMutability": "view",
      "type": "function"
    },
    {
      "inputs": [],
      "name": "getPledgeAmount",
      "outputs": [
        {
          "internalType": "uint256",
          "name": "",
          "type": "uint256"
        }
      ],
      "stateMutability": "view",
      "type": "function"
    },
    {
      "inputs": [],
      "name": "getRefundAmount",
      "outputs": [
        {
          "internalType": "uint256",
          "name": "",
          "type": "uint256"
        }
      ],
      "stateMutability": "view",
      "type": "function"
    },
    {
      "inputs": [],
      "name": "i_owner",
      "outputs": [
        {
          "internalType": "address",
          "name": "",
          "type": "address"
        }
      ],
      "stateMutability": "view",
      "type": "function"
    },
    {
      "inputs": [
        {
          "internalType": "uint256",
          "name": "_amount",
          "type": "uint256"
        }
      ],
      "name": "pledge",
      "outputs": [],
      "stateMutability": "nonpayable",
      "type": "function"
    },
    {
      "inputs": [
        {
          "internalType": "uint256",
          "name": "_amount",
          "type": "uint256"
        }
      ],
      "name": "refund",
      "outputs": [],
      "stateMutability": "nonpayable",
      "type": "function"
    },
    {
      "inputs": [
        {
          "internalType": "address",
          "name": "",
          "type": "address"
        }
      ],
      "name": "s_addressToAmountFunded",
      "outputs": [
        {
          "internalType": "uint256",
          "name": "",
          "type": "uint256"
        }
      ],
      "stateMutability": "view",
      "type": "function"
    },
    {
      "inputs": [
        {
          "internalType": "uint256",
          "name": "",
          "type": "uint256"
        }
      ],
      "name": "s_funders",
      "outputs": [
        {
          "internalType": "address",
          "name": "",
          "type": "address"
        }
      ],
      "stateMutability": "view",
      "type": "function"
    },
    {
      "inputs": [
        {
          "internalType": "uint256",
          "name": "_goal",
          "type": "uint256"
        },
        {
          "internalType": "uint32",
          "name": "_endAt",
          "type": "uint32"
        },
        {
          "internalType": "address",
          "name": "_token",
          "type": "address"
        }
      ],
      "name": "store",
      "outputs": [],
      "stateMutability": "nonpayable",
      "type": "function"
    },
    {
      "inputs": [
        {
          "internalType": "uint256",
          "name": "_amount",
          "type": "uint256"
        }
      ],
      "name": "withdraw",
      "outputs": [],
      "stateMutability": "nonpayable",
      "type": "function"
    }
  ],
  "transactionHash": "0x038ca27bafe279ea6827edaf63d6e9da907bb76bf961f4347f8ca131ced6debf",
  "args": [],
  "numDeployments": 1,
  "solcInputHash": "24cd33b939e4f29c9fe89da0c92ae432",
  "bytecode": "0x608060405234801561001057600080fd5b506116f8806100206000396000f3fe608060405234801561001057600080fd5b50600436106100ea5760003560e01c80637326c9c01161008c578063b97a7d2411610066578063b97a7d2414610239578063d350fe1f14610257578063dba6335f14610275578063dfed2f2514610293576100ea565b80637326c9c0146101e1578063812be89b146101fd578063893d20e81461021b576100ea565b80633dd11269116100c85780633dd112691461015757806354861af7146101755780636f9fb98a146101a5578063722713f7146101c3576100ea565b80631bf6132d146100ef578063278ecde11461011f5780632e1a7d4d1461013b575b600080fd5b61010960048036038101906101049190610f97565b6102af565b6040516101169190610fdd565b60405180910390f35b61013960048036038101906101349190611024565b6102c7565b005b61015560048036038101906101509190611024565b610564565b005b61015f6108a9565b60405161016c9190611070565b60405180910390f35b61018f600480360381019061018a9190611024565b6108c3565b60405161019c919061109a565b60405180910390f35b6101ad610902565b6040516101ba9190610fdd565b60405180910390f35b6101cb6109a5565b6040516101d89190610fdd565b60405180910390f35b6101fb60048036038101906101f69190611024565b610a4a565b005b610205610c6b565b6040516102129190610fdd565b60405180910390f35b610223610c75565b604051610230919061109a565b60405180910390f35b610241610c9f565b60405161024e9190610fdd565b60405180910390f35b61025f610ca8565b60405161026c9190610fdd565b60405180910390f35b61027d610cef565b60405161028a919061109a565b60405180910390f35b6102ad60048036038101906102a891906110e1565b610d15565b005b60046020528060005260406000206000915090505481565b6000600460003373ffffffffffffffffffffffffffffffffffffffff1673ffffffffffffffffffffffffffffffffffffffff1681526020019081526020016000205490506000811161034e576040517f08c379a000000000000000000000000000000000000000000000000000000000815260040161034590611191565b60405180910390fd5b600160009054906101000a900463ffffffff1663ffffffff1642116103a8576040517f08c379a000000000000000000000000000000000000000000000000000000000815260040161039f906111fd565b60405180910390fd5b600054670de0b6b3a76400006002546103c1919061127b565b10610401576040517f08c379a00000000000000000000000000000000000000000000000000000000081526004016103f8906112f8565b60405180910390fd5b80600260008282546104139190611318565b925050819055506000600460003373ffffffffffffffffffffffffffffffffffffffff1673ffffffffffffffffffffffffffffffffffffffff16815260200190815260200160002081905550600067ffffffffffffffff81111561047a5761047961134c565b5b6040519080825280602002602001820160405280156104a85781602001602082028036833780820191505090505b50600590805190602001906104be929190610e8d565b50600360009054906101000a900473ffffffffffffffffffffffffffffffffffffffff1673ffffffffffffffffffffffffffffffffffffffff1663a9059cbb33846040518363ffffffff1660e01b815260040161051c92919061137b565b6020604051808303816000875af115801561053b573d6000803e3d6000fd5b505050506040513d601f19601f8201168201806040525081019061055f91906113dc565b505050565b600660009054906101000a900473ffffffffffffffffffffffffffffffffffffffff1673ffffffffffffffffffffffffffffffffffffffff163373ffffffffffffffffffffffffffffffffffffffff16146105eb576040517f30cd747100000000000000000000000000000000000000000000000000000000815260040160405180910390fd5b600160009054906101000a900463ffffffff1663ffffffff164211610645576040517f08c379a000000000000000000000000000000000000000000000000000000000815260040161063c906111fd565b60405180910390fd5b600054600254101561068c576040517f08c379a000000000000000000000000000000000000000000000000000000000815260040161068390611455565b60405180910390fd5b60006002819055506000600580548060200260200160405190810160405280929190818152602001828054801561071857602002820191906000526020600020905b8160009054906101000a900473ffffffffffffffffffffffffffffffffffffffff1673ffffffffffffffffffffffffffffffffffffffff16815260200190600101908083116106ce575b5050505050905060005b81518110156107a35760008282815181106107405761073f611475565b5b602002602001015190506000600460008373ffffffffffffffffffffffffffffffffffffffff1673ffffffffffffffffffffffffffffffffffffffff1681526020019081526020016000208190555050808061079b906114a4565b915050610722565b50600067ffffffffffffffff8111156107bf576107be61134c565b5b6040519080825280602002602001820160405280156107ed5781602001602082028036833780820191505090505b5060059080519060200190610803929190610e8d565b50600360009054906101000a900473ffffffffffffffffffffffffffffffffffffffff1673ffffffffffffffffffffffffffffffffffffffff1663a9059cbb33846040518363ffffffff1660e01b815260040161086192919061137b565b6020604051808303816000875af1158015610880573d6000803e3d6000fd5b505050506040513d601f19601f820116820180604052508101906108a491906113dc565b505050565b6000600160009054906101000a900463ffffffff16905090565b600581815481106108d357600080fd5b906000526020600020016000915054906101000a900473ffffffffffffffffffffffffffffffffffffffff1681565b6000600360009054906101000a900473ffffffffffffffffffffffffffffffffffffffff1673ffffffffffffffffffffffffffffffffffffffff166370a08231306040518263ffffffff1660e01b815260040161095f919061109a565b602060405180830381865afa15801561097c573d6000803e3d6000fd5b505050506040513d601f19601f820116820180604052508101906109a09190611501565b905090565b6000600360009054906101000a900473ffffffffffffffffffffffffffffffffffffffff1673ffffffffffffffffffffffffffffffffffffffff1663dd62ed3e33306040518363ffffffff1660e01b8152600401610a0492919061152e565b602060405180830381865afa158015610a21573d6000803e3d6000fd5b505050506040513d601f19601f82011682018060405250810190610a459190611501565b905090565b600160009054906101000a900463ffffffff1663ffffffff16421115610aa5576040517f08c379a0000000000000000000000000000000000000000000000000000000008152600401610a9c906115a3565b60405180910390fd5b80600460003373ffffffffffffffffffffffffffffffffffffffff1673ffffffffffffffffffffffffffffffffffffffff1681526020019081526020016000206000828254610af491906115c3565b925050819055506005339080600181540180825580915050600190039060005260206000200160009091909190916101000a81548173ffffffffffffffffffffffffffffffffffffffff021916908373ffffffffffffffffffffffffffffffffffffffff1602179055508060026000828254610b7091906115c3565b92505081905550600360009054906101000a900473ffffffffffffffffffffffffffffffffffffffff1673ffffffffffffffffffffffffffffffffffffffff166323b872dd3330846040518463ffffffff1660e01b8152600401610bd6939291906115f7565b6020604051808303816000875af1158015610bf5573d6000803e3d6000fd5b505050506040513d601f19601f82011682018060405250810190610c1991906113dc565b503373ffffffffffffffffffffffffffffffffffffffff167f5e91ea8ea1c46300eb761859be01d7b16d44389ef91e03a163a87413cbf55b9582604051610c609190610fdd565b60405180910390a250565b6000600254905090565b6000600660009054906101000a900473ffffffffffffffffffffffffffffffffffffffff16905090565b60008054905090565b6000600460003373ffffffffffffffffffffffffffffffffffffffff1673ffffffffffffffffffffffffffffffffffffffff16815260200190815260200160002054905090565b600660009054906101000a900473ffffffffffffffffffffffffffffffffffffffff1681565b8260008190555081600160006101000a81548163ffffffff021916908363ffffffff16021790555080600360006101000a81548173ffffffffffffffffffffffffffffffffffffffff021916908373ffffffffffffffffffffffffffffffffffffffff160217905550600360009054906101000a900473ffffffffffffffffffffffffffffffffffffffff1673ffffffffffffffffffffffffffffffffffffffff16638da5cb5b6040518163ffffffff1660e01b8152600401602060405180830381865afa158015610deb573d6000803e3d6000fd5b505050506040513d601f19601f82011682018060405250810190610e0f919061166c565b600660006101000a81548173ffffffffffffffffffffffffffffffffffffffff021916908373ffffffffffffffffffffffffffffffffffffffff1602179055507f1cd1fa9550992626ede71ce57bfe10747b9b908b6ed19e05a4c91807d3794a6a8383604051610e80929190611699565b60405180910390a1505050565b828054828255906000526020600020908101928215610f06579160200282015b82811115610f055782518260006101000a81548173ffffffffffffffffffffffffffffffffffffffff021916908373ffffffffffffffffffffffffffffffffffffffff16021790555091602001919060010190610ead565b5b509050610f139190610f17565b5090565b5b80821115610f30576000816000905550600101610f18565b5090565b600080fd5b600073ffffffffffffffffffffffffffffffffffffffff82169050919050565b6000610f6482610f39565b9050919050565b610f7481610f59565b8114610f7f57600080fd5b50565b600081359050610f9181610f6b565b92915050565b600060208284031215610fad57610fac610f34565b5b6000610fbb84828501610f82565b91505092915050565b6000819050919050565b610fd781610fc4565b82525050565b6000602082019050610ff26000830184610fce565b92915050565b61100181610fc4565b811461100c57600080fd5b50565b60008135905061101e81610ff8565b92915050565b60006020828403121561103a57611039610f34565b5b60006110488482850161100f565b91505092915050565b600063ffffffff82169050919050565b61106a81611051565b82525050565b60006020820190506110856000830184611061565b92915050565b61109481610f59565b82525050565b60006020820190506110af600083018461108b565b92915050565b6110be81611051565b81146110c957600080fd5b50565b6000813590506110db816110b5565b92915050565b6000806000606084860312156110fa576110f9610f34565b5b60006111088682870161100f565b9350506020611119868287016110cc565b925050604061112a86828701610f82565b9150509250925092565b600082825260208201905092915050565b7f4e6f20726566756e6420617661696c61626c6500000000000000000000000000600082015250565b600061117b601383611134565b915061118682611145565b602082019050919050565b600060208201905081810360008301526111aa8161116e565b9050919050565b7f6e6f7420656e6465640000000000000000000000000000000000000000000000600082015250565b60006111e7600983611134565b91506111f2826111b1565b602082019050919050565b60006020820190508181036000830152611216816111da565b9050919050565b7f4e487b7100000000000000000000000000000000000000000000000000000000600052601260045260246000fd5b7f4e487b7100000000000000000000000000000000000000000000000000000000600052601160045260246000fd5b600061128682610fc4565b915061129183610fc4565b9250826112a1576112a061121d565b5b828204905092915050565b7f706c6564676564203e20676f616c000000000000000000000000000000000000600082015250565b60006112e2600e83611134565b91506112ed826112ac565b602082019050919050565b60006020820190508181036000830152611311816112d5565b9050919050565b600061132382610fc4565b915061132e83610fc4565b92508282039050818111156113465761134561124c565b5b92915050565b7f4e487b7100000000000000000000000000000000000000000000000000000000600052604160045260246000fd5b6000604082019050611390600083018561108b565b61139d6020830184610fce565b9392505050565b60008115159050919050565b6113b9816113a4565b81146113c457600080fd5b50565b6000815190506113d6816113b0565b92915050565b6000602082840312156113f2576113f1610f34565b5b6000611400848285016113c7565b91505092915050565b7f706c6564676564203c20676f616c000000000000000000000000000000000000600082015250565b600061143f600e83611134565b915061144a82611409565b602082019050919050565b6000602082019050818103600083015261146e81611432565b9050919050565b7f4e487b7100000000000000000000000000000000000000000000000000000000600052603260045260246000fd5b60006114af82610fc4565b91507fffffffffffffffffffffffffffffffffffffffffffffffffffffffffffffffff82036114e1576114e061124c565b5b600182019050919050565b6000815190506114fb81610ff8565b92915050565b60006020828403121561151757611516610f34565b5b6000611525848285016114ec565b91505092915050565b6000604082019050611543600083018561108b565b611550602083018461108b565b9392505050565b7f656e646564000000000000000000000000000000000000000000000000000000600082015250565b600061158d600583611134565b915061159882611557565b602082019050919050565b600060208201905081810360008301526115bc81611580565b9050919050565b60006115ce82610fc4565b91506115d983610fc4565b92508282019050808211156115f1576115f061124c565b5b92915050565b600060608201905061160c600083018661108b565b611619602083018561108b565b6116266040830184610fce565b949350505050565b600061163982610f39565b9050919050565b6116498161162e565b811461165457600080fd5b50565b60008151905061166681611640565b92915050565b60006020828403121561168257611681610f34565b5b600061169084828501611657565b91505092915050565b60006040820190506116ae6000830185610fce565b6116bb6020830184611061565b939250505056fea26469706673582212205e60480e03c57c814800abe3291938157877770f6dc40d8c284cef2b84360edb64736f6c63430008110033",
  "devdoc": {
    "kind": "dev",
    "methods": {},
    "version": 1
  },
  "userdoc": {
    "kind": "user",
    "methods": {},
    "version": 1
  },
  "storageLayout": {
    "storage": [
      {
        "astId": 1945,
        "contract": "contracts/CrowdFunded.sol:FundContract",
        "label": "s_goal",
        "offset": 0,
        "slot": "0",
        "type": "t_uint256"
      },
      {
        "astId": 1947,
        "contract": "contracts/CrowdFunded.sol:FundContract",
        "label": "s_endAt",
        "offset": 0,
        "slot": "1",
        "type": "t_uint32"
      },
      {
        "astId": 1949,
        "contract": "contracts/CrowdFunded.sol:FundContract",
        "label": "s_pledgedAmount",
        "offset": 0,
        "slot": "2",
        "type": "t_uint256"
      },
      {
        "astId": 1952,
        "contract": "contracts/CrowdFunded.sol:FundContract",
        "label": "token",
        "offset": 0,
        "slot": "3",
        "type": "t_contract(FundedToken)2402"
      },
      {
        "astId": 1956,
        "contract": "contracts/CrowdFunded.sol:FundContract",
        "label": "s_addressToAmountFunded",
        "offset": 0,
        "slot": "4",
        "type": "t_mapping(t_address,t_uint256)"
      },
      {
        "astId": 1959,
        "contract": "contracts/CrowdFunded.sol:FundContract",
        "label": "s_funders",
        "offset": 0,
        "slot": "5",
        "type": "t_array(t_address)dyn_storage"
      },
      {
        "astId": 1961,
        "contract": "contracts/CrowdFunded.sol:FundContract",
        "label": "i_owner",
        "offset": 0,
        "slot": "6",
        "type": "t_address"
      }
    ],
    "types": {
      "t_address": {
        "encoding": "inplace",
        "label": "address",
        "numberOfBytes": "20"
      },
      "t_array(t_address)dyn_storage": {
        "base": "t_address",
        "encoding": "dynamic_array",
        "label": "address[]",
        "numberOfBytes": "32"
      },
      "t_contract(FundedToken)2402": {
        "encoding": "inplace",
        "label": "contract FundedToken",
        "numberOfBytes": "20"
      },
      "t_mapping(t_address,t_uint256)": {
        "encoding": "mapping",
        "key": "t_address",
        "label": "mapping(address => uint256)",
        "numberOfBytes": "32",
        "value": "t_uint256"
      },
      "t_uint256": {
        "encoding": "inplace",
        "label": "uint256",
        "numberOfBytes": "32"
      },
      "t_uint32": {
        "encoding": "inplace",
        "label": "uint32",
        "numberOfBytes": "4"
      }
    }
  }
}