{
  "address": "0xDEb7AAAeac562a2D26A4A501C537b92Bc98b511A",
  "abi": [
    {
      "anonymous": false,
      "inputs": [
        {
          "indexed": true,
          "internalType": "address",
          "name": "previousOwner",
          "type": "address"
        },
        {
          "indexed": true,
          "internalType": "address",
          "name": "newOwner",
          "type": "address"
        }
      ],
      "name": "OwnershipTransferred",
      "type": "event"
    },
    {
      "anonymous": false,
      "inputs": [
        {
          "indexed": true,
          "internalType": "address",
          "name": "caller",
          "type": "address"
        },
        {
          "indexed": false,
          "internalType": "uint256",
          "name": "amount",
          "type": "uint256"
        }
      ],
      "name": "Pledge",
      "type": "event"
    },
    {
      "anonymous": false,
      "inputs": [
        {
          "indexed": false,
          "internalType": "uint256",
          "name": "goal",
          "type": "uint256"
        },
        {
          "indexed": false,
          "internalType": "uint32",
          "name": "end",
          "type": "uint32"
        }
      ],
      "name": "ValueChanged",
      "type": "event"
    },
    {
      "inputs": [],
      "name": "balanceOf",
      "outputs": [
        {
          "internalType": "uint256",
          "name": "",
          "type": "uint256"
        }
      ],
      "stateMutability": "view",
      "type": "function"
    },
    {
      "inputs": [],
      "name": "getContractBalance",
      "outputs": [
        {
          "internalType": "uint256",
          "name": "",
          "type": "uint256"
        }
      ],
      "stateMutability": "view",
      "type": "function"
    },
    {
      "inputs": [],
      "name": "getEDate",
      "outputs": [
        {
          "internalType": "uint32",
          "name": "",
          "type": "uint32"
        }
      ],
      "stateMutability": "view",
      "type": "function"
    },
    {
      "inputs": [],
      "name": "getGoal",
      "outputs": [
        {
          "internalType": "uint256",
          "name": "",
          "type": "uint256"
        }
      ],
      "stateMutability": "view",
      "type": "function"
    },
    {
      "inputs": [],
      "name": "getOwner",
      "outputs": [
        {
          "internalType": "address",
          "name": "",
          "type": "address"
        }
      ],
      "stateMutability": "view",
      "type": "function"
    },
    {
      "inputs": [],
      "name": "getPledgeAmount",
      "outputs": [
        {
          "internalType": "uint256",
          "name": "",
          "type": "uint256"
        }
      ],
      "stateMutability": "view",
      "type": "function"
    },
    {
      "inputs": [],
      "name": "getRefundAmount",
      "outputs": [
        {
          "internalType": "uint256",
          "name": "",
          "type": "uint256"
        }
      ],
      "stateMutability": "view",
      "type": "function"
    },
    {
      "inputs": [],
      "name": "getTopPledger",
      "outputs": [
        {
          "internalType": "address",
          "name": "",
          "type": "address"
        },
        {
          "internalType": "uint256",
          "name": "",
          "type": "uint256"
        }
      ],
      "stateMutability": "view",
      "type": "function"
    },
    {
      "inputs": [],
      "name": "getVer",
      "outputs": [
        {
          "internalType": "uint256",
          "name": "",
          "type": "uint256"
        }
      ],
      "stateMutability": "pure",
      "type": "function"
    },
    {
      "inputs": [],
      "name": "i_owner",
      "outputs": [
        {
          "internalType": "address",
          "name": "",
          "type": "address"
        }
      ],
      "stateMutability": "view",
      "type": "function"
    },
    {
      "inputs": [],
      "name": "owner",
      "outputs": [
        {
          "internalType": "address",
          "name": "",
          "type": "address"
        }
      ],
      "stateMutability": "view",
      "type": "function"
    },
    {
      "inputs": [
        {
          "internalType": "uint256",
          "name": "_amount",
          "type": "uint256"
        }
      ],
      "name": "pledge",
      "outputs": [],
      "stateMutability": "nonpayable",
      "type": "function"
    },
    {
      "inputs": [
        {
          "internalType": "uint256",
          "name": "_amount",
          "type": "uint256"
        }
      ],
      "name": "refund",
      "outputs": [],
      "stateMutability": "nonpayable",
      "type": "function"
    },
    {
      "inputs": [],
      "name": "renounceOwnership",
      "outputs": [],
      "stateMutability": "nonpayable",
      "type": "function"
    },
    {
      "inputs": [
        {
          "internalType": "address",
          "name": "",
          "type": "address"
        }
      ],
      "name": "s_addressToAmountFunded",
      "outputs": [
        {
          "internalType": "uint256",
          "name": "",
          "type": "uint256"
        }
      ],
      "stateMutability": "view",
      "type": "function"
    },
    {
      "inputs": [
        {
          "internalType": "uint256",
          "name": "",
          "type": "uint256"
        }
      ],
      "name": "s_funders",
      "outputs": [
        {
          "internalType": "address",
          "name": "",
          "type": "address"
        }
      ],
      "stateMutability": "view",
      "type": "function"
    },
    {
      "inputs": [
        {
          "internalType": "uint256",
          "name": "_goal",
          "type": "uint256"
        },
        {
          "internalType": "uint32",
          "name": "_endAt",
          "type": "uint32"
        },
        {
          "internalType": "address",
          "name": "_token",
          "type": "address"
        }
      ],
      "name": "store",
      "outputs": [],
      "stateMutability": "nonpayable",
      "type": "function"
    },
    {
      "inputs": [
        {
          "internalType": "address",
          "name": "newOwner",
          "type": "address"
        }
      ],
      "name": "transferOwnership",
      "outputs": [],
      "stateMutability": "nonpayable",
      "type": "function"
    },
    {
      "inputs": [
        {
          "internalType": "uint256",
          "name": "_amount",
          "type": "uint256"
        }
      ],
      "name": "withdraw",
      "outputs": [],
      "stateMutability": "nonpayable",
      "type": "function"
    }
  ],
  "transactionHash": "0x15e2d1c13734f2a27649cffc108dcaea37e4be97cdce21f5b9d1edf668aaa542",
  "args": [],
  "numDeployments": 1,
  "solcInputHash": "a5039cb06bf7739bd50e15e8d9ca3b4c",
  "bytecode": "0x608060405234801561001057600080fd5b5061002d61002261003260201b60201c565b61003a60201b60201c565b6100fe565b600033905090565b60008060009054906101000a900473ffffffffffffffffffffffffffffffffffffffff169050816000806101000a81548173ffffffffffffffffffffffffffffffffffffffff021916908373ffffffffffffffffffffffffffffffffffffffff1602179055508173ffffffffffffffffffffffffffffffffffffffff168173ffffffffffffffffffffffffffffffffffffffff167f8be0079c531659141344cd1fd0a4f28419497f9722a3daafe3b4186f6b6457e060405160405180910390a35050565b611db98061010d6000396000f3fe608060405234801561001057600080fd5b50600436106101215760003560e01c8063812be89b116100ad578063b97a7d2411610071578063b97a7d24146102d5578063d350fe1f146102f3578063dba6335f14610311578063dfed2f251461032f578063f2fde38b1461034b57610121565b8063812be89b1461023e5780638172e5a01461025c5780638793ad551461027b578063893d20e8146102995780638da5cb5b146102b757610121565b806354861af7116100f457806354861af7146101ac5780636f9fb98a146101dc578063715018a6146101fa578063722713f7146102045780637326c9c01461022257610121565b80631bf6132d14610126578063278ecde1146101565780632e1a7d4d146101725780633dd112691461018e575b600080fd5b610140600480360381019061013b91906114ab565b610367565b60405161014d91906114f1565b60405180910390f35b610170600480360381019061016b9190611538565b61037f565b005b61018c60048036038101906101879190611538565b61061c565b005b61019661096a565b6040516101a39190611584565b60405180910390f35b6101c660048036038101906101c19190611538565b610984565b6040516101d391906115ae565b60405180910390f35b6101e46109c3565b6040516101f191906114f1565b60405180910390f35b610202610a66565b005b61020c610a7a565b60405161021991906114f1565b60405180910390f35b61023c60048036038101906102379190611538565b610b1f565b005b610246610ce5565b60405161025391906114f1565b60405180910390f35b610264610cef565b6040516102729291906115c9565b60405180910390f35b610283610e5e565b60405161029091906114f1565b60405180910390f35b6102a1610e6c565b6040516102ae91906115ae565b60405180910390f35b6102bf610e96565b6040516102cc91906115ae565b60405180910390f35b6102dd610ebf565b6040516102ea91906114f1565b60405180910390f35b6102fb610ec9565b60405161030891906114f1565b60405180910390f35b610319610f10565b60405161032691906115ae565b60405180910390f35b6103496004803603810190610344919061161e565b610f36565b005b610365600480360381019061036091906114ab565b61110f565b005b60056020528060005260406000206000915090505481565b6000600560003373ffffffffffffffffffffffffffffffffffffffff1673ffffffffffffffffffffffffffffffffffffffff16815260200190815260200160002054905060008111610406576040517f08c379a00000000000000000000000000000000000000000000000000000000081526004016103fd906116ce565b60405180910390fd5b600260009054906101000a900463ffffffff1663ffffffff164211610460576040517f08c379a00000000000000000000000000000000000000000000000000000000081526004016104579061173a565b60405180910390fd5b600154670de0b6b3a764000060035461047991906117b8565b106104b9576040517f08c379a00000000000000000000000000000000000000000000000000000000081526004016104b090611835565b60405180910390fd5b80600360008282546104cb9190611855565b925050819055506000600560003373ffffffffffffffffffffffffffffffffffffffff1673ffffffffffffffffffffffffffffffffffffffff16815260200190815260200160002081905550600067ffffffffffffffff81111561053257610531611889565b5b6040519080825280602002602001820160405280156105605781602001602082028036833780820191505090505b50600690805190602001906105769291906113a1565b50600460009054906101000a900473ffffffffffffffffffffffffffffffffffffffff1673ffffffffffffffffffffffffffffffffffffffff1663a9059cbb33846040518363ffffffff1660e01b81526004016105d49291906115c9565b6020604051808303816000875af11580156105f3573d6000803e3d6000fd5b505050506040513d601f19601f8201168201806040525081019061061791906118f0565b505050565b3373ffffffffffffffffffffffffffffffffffffffff16600760009054906101000a900473ffffffffffffffffffffffffffffffffffffffff1673ffffffffffffffffffffffffffffffffffffffff16146106ac576040517f08c379a00000000000000000000000000000000000000000000000000000000081526004016106a390611969565b60405180910390fd5b600260009054906101000a900463ffffffff1663ffffffff164211610706576040517f08c379a00000000000000000000000000000000000000000000000000000000081526004016106fd9061173a565b60405180910390fd5b600154600354101561074d576040517f08c379a0000000000000000000000000000000000000000000000000000000008152600401610744906119d5565b60405180910390fd5b6000600381905550600060068054806020026020016040519081016040528092919081815260200182805480156107d957602002820191906000526020600020905b8160009054906101000a900473ffffffffffffffffffffffffffffffffffffffff1673ffffffffffffffffffffffffffffffffffffffff168152602001906001019080831161078f575b5050505050905060005b8151811015610864576000828281518110610801576108006119f5565b5b602002602001015190506000600560008373ffffffffffffffffffffffffffffffffffffffff1673ffffffffffffffffffffffffffffffffffffffff1681526020019081526020016000208190555050808061085c90611a24565b9150506107e3565b50600067ffffffffffffffff8111156108805761087f611889565b5b6040519080825280602002602001820160405280156108ae5781602001602082028036833780820191505090505b50600690805190602001906108c49291906113a1565b50600460009054906101000a900473ffffffffffffffffffffffffffffffffffffffff1673ffffffffffffffffffffffffffffffffffffffff1663a9059cbb33846040518363ffffffff1660e01b81526004016109229291906115c9565b6020604051808303816000875af1158015610941573d6000803e3d6000fd5b505050506040513d601f19601f8201168201806040525081019061096591906118f0565b505050565b6000600260009054906101000a900463ffffffff16905090565b6006818154811061099457600080fd5b906000526020600020016000915054906101000a900473ffffffffffffffffffffffffffffffffffffffff1681565b6000600460009054906101000a900473ffffffffffffffffffffffffffffffffffffffff1673ffffffffffffffffffffffffffffffffffffffff166370a08231306040518263ffffffff1660e01b8152600401610a2091906115ae565b602060405180830381865afa158015610a3d573d6000803e3d6000fd5b505050506040513d601f19601f82011682018060405250810190610a619190611a81565b905090565b610a6e611192565b610a786000611210565b565b6000600460009054906101000a900473ffffffffffffffffffffffffffffffffffffffff1673ffffffffffffffffffffffffffffffffffffffff1663dd62ed3e33306040518363ffffffff1660e01b8152600401610ad9929190611aae565b602060405180830381865afa158015610af6573d6000803e3d6000fd5b505050506040513d601f19601f82011682018060405250810190610b1a9190611a81565b905090565b80600560003373ffffffffffffffffffffffffffffffffffffffff1673ffffffffffffffffffffffffffffffffffffffff1681526020019081526020016000206000828254610b6e9190611ad7565b925050819055506006339080600181540180825580915050600190039060005260206000200160009091909190916101000a81548173ffffffffffffffffffffffffffffffffffffffff021916908373ffffffffffffffffffffffffffffffffffffffff1602179055508060036000828254610bea9190611ad7565b92505081905550600460009054906101000a900473ffffffffffffffffffffffffffffffffffffffff1673ffffffffffffffffffffffffffffffffffffffff166323b872dd3330846040518463ffffffff1660e01b8152600401610c5093929190611b0b565b6020604051808303816000875af1158015610c6f573d6000803e3d6000fd5b505050506040513d601f19601f82011682018060405250810190610c9391906118f0565b503373ffffffffffffffffffffffffffffffffffffffff167f5e91ea8ea1c46300eb761859be01d7b16d44389ef91e03a163a87413cbf55b9582604051610cda91906114f1565b60405180910390a250565b6000600354905090565b60008060006006805480602002602001604051908101604052809291908181526020018280548015610d7657602002820191906000526020600020905b8160009054906101000a900473ffffffffffffffffffffffffffffffffffffffff1673ffffffffffffffffffffffffffffffffffffffff1681526020019060010190808311610d2c575b505050505090506000806000905060005b8351811015610e50576000848281518110610da557610da46119f5565b5b60200260200101519050600560008273ffffffffffffffffffffffffffffffffffffffff1673ffffffffffffffffffffffffffffffffffffffff16815260200190815260200160002054831015610e3c57600560008273ffffffffffffffffffffffffffffffffffffffff1673ffffffffffffffffffffffffffffffffffffffff1681526020019081526020016000205492508093505b508080610e4890611a24565b915050610d87565b508181945094505050509091565b600080600290508091505090565b6000600760009054906101000a900473ffffffffffffffffffffffffffffffffffffffff16905090565b60008060009054906101000a900473ffffffffffffffffffffffffffffffffffffffff16905090565b6000600154905090565b6000600560003373ffffffffffffffffffffffffffffffffffffffff1673ffffffffffffffffffffffffffffffffffffffff16815260200190815260200160002054905090565b600760009054906101000a900473ffffffffffffffffffffffffffffffffffffffff1681565b8260018190555081600260006101000a81548163ffffffff021916908363ffffffff16021790555080600460006101000a81548173ffffffffffffffffffffffffffffffffffffffff021916908373ffffffffffffffffffffffffffffffffffffffff160217905550600460009054906101000a900473ffffffffffffffffffffffffffffffffffffffff1673ffffffffffffffffffffffffffffffffffffffff16638da5cb5b6040518163ffffffff1660e01b8152600401602060405180830381865afa15801561100c573d6000803e3d6000fd5b505050506040513d601f19601f820116820180604052508101906110309190611b80565b600760006101000a81548173ffffffffffffffffffffffffffffffffffffffff021916908373ffffffffffffffffffffffffffffffffffffffff1602179055506110d16040518060400160405280600a81526020017f695f6f776e657220257300000000000000000000000000000000000000000000815250600760009054906101000a900473ffffffffffffffffffffffffffffffffffffffff166112d4565b7f1cd1fa9550992626ede71ce57bfe10747b9b908b6ed19e05a4c91807d3794a6a8383604051611102929190611bad565b60405180910390a1505050565b611117611192565b600073ffffffffffffffffffffffffffffffffffffffff168173ffffffffffffffffffffffffffffffffffffffff1603611186576040517f08c379a000000000000000000000000000000000000000000000000000000000815260040161117d90611c48565b60405180910390fd5b61118f81611210565b50565b61119a611370565b73ffffffffffffffffffffffffffffffffffffffff166111b8610e96565b73ffffffffffffffffffffffffffffffffffffffff161461120e576040517f08c379a000000000000000000000000000000000000000000000000000000000815260040161120590611cb4565b60405180910390fd5b565b60008060009054906101000a900473ffffffffffffffffffffffffffffffffffffffff169050816000806101000a81548173ffffffffffffffffffffffffffffffffffffffff021916908373ffffffffffffffffffffffffffffffffffffffff1602179055508173ffffffffffffffffffffffffffffffffffffffff168173ffffffffffffffffffffffffffffffffffffffff167f8be0079c531659141344cd1fd0a4f28419497f9722a3daafe3b4186f6b6457e060405160405180910390a35050565b61136c82826040516024016112ea929190611d53565b6040516020818303038152906040527f319af333000000000000000000000000000000000000000000000000000000007bffffffffffffffffffffffffffffffffffffffffffffffffffffffff19166020820180517bffffffffffffffffffffffffffffffffffffffffffffffffffffffff8381831617835250505050611378565b5050565b600033905090565b60008151905060006a636f6e736f6c652e6c6f679050602083016000808483855afa5050505050565b82805482825590600052602060002090810192821561141a579160200282015b828111156114195782518260006101000a81548173ffffffffffffffffffffffffffffffffffffffff021916908373ffffffffffffffffffffffffffffffffffffffff160217905550916020019190600101906113c1565b5b509050611427919061142b565b5090565b5b8082111561144457600081600090555060010161142c565b5090565b600080fd5b600073ffffffffffffffffffffffffffffffffffffffff82169050919050565b60006114788261144d565b9050919050565b6114888161146d565b811461149357600080fd5b50565b6000813590506114a58161147f565b92915050565b6000602082840312156114c1576114c0611448565b5b60006114cf84828501611496565b91505092915050565b6000819050919050565b6114eb816114d8565b82525050565b600060208201905061150660008301846114e2565b92915050565b611515816114d8565b811461152057600080fd5b50565b6000813590506115328161150c565b92915050565b60006020828403121561154e5761154d611448565b5b600061155c84828501611523565b91505092915050565b600063ffffffff82169050919050565b61157e81611565565b82525050565b60006020820190506115996000830184611575565b92915050565b6115a88161146d565b82525050565b60006020820190506115c3600083018461159f565b92915050565b60006040820190506115de600083018561159f565b6115eb60208301846114e2565b9392505050565b6115fb81611565565b811461160657600080fd5b50565b600081359050611618816115f2565b92915050565b60008060006060848603121561163757611636611448565b5b600061164586828701611523565b935050602061165686828701611609565b925050604061166786828701611496565b9150509250925092565b600082825260208201905092915050565b7f4e6f20726566756e6420617661696c61626c6500000000000000000000000000600082015250565b60006116b8601383611671565b91506116c382611682565b602082019050919050565b600060208201905081810360008301526116e7816116ab565b9050919050565b7f6e6f7420656e6465640000000000000000000000000000000000000000000000600082015250565b6000611724600983611671565b915061172f826116ee565b602082019050919050565b6000602082019050818103600083015261175381611717565b9050919050565b7f4e487b7100000000000000000000000000000000000000000000000000000000600052601260045260246000fd5b7f4e487b7100000000000000000000000000000000000000000000000000000000600052601160045260246000fd5b60006117c3826114d8565b91506117ce836114d8565b9250826117de576117dd61175a565b5b828204905092915050565b7f706c6564676564203e20676f616c000000000000000000000000000000000000600082015250565b600061181f600e83611671565b915061182a826117e9565b602082019050919050565b6000602082019050818103600083015261184e81611812565b9050919050565b6000611860826114d8565b915061186b836114d8565b925082820390508181111561188357611882611789565b5b92915050565b7f4e487b7100000000000000000000000000000000000000000000000000000000600052604160045260246000fd5b60008115159050919050565b6118cd816118b8565b81146118d857600080fd5b50565b6000815190506118ea816118c4565b92915050565b60006020828403121561190657611905611448565b5b6000611914848285016118db565b91505092915050565b7f6e6f74206f776e65720000000000000000000000000000000000000000000000600082015250565b6000611953600983611671565b915061195e8261191d565b602082019050919050565b6000602082019050818103600083015261198281611946565b9050919050565b7f706c6564676564203c20676f616c000000000000000000000000000000000000600082015250565b60006119bf600e83611671565b91506119ca82611989565b602082019050919050565b600060208201905081810360008301526119ee816119b2565b9050919050565b7f4e487b7100000000000000000000000000000000000000000000000000000000600052603260045260246000fd5b6000611a2f826114d8565b91507fffffffffffffffffffffffffffffffffffffffffffffffffffffffffffffffff8203611a6157611a60611789565b5b600182019050919050565b600081519050611a7b8161150c565b92915050565b600060208284031215611a9757611a96611448565b5b6000611aa584828501611a6c565b91505092915050565b6000604082019050611ac3600083018561159f565b611ad0602083018461159f565b9392505050565b6000611ae2826114d8565b9150611aed836114d8565b9250828201905080821115611b0557611b04611789565b5b92915050565b6000606082019050611b20600083018661159f565b611b2d602083018561159f565b611b3a60408301846114e2565b949350505050565b6000611b4d8261144d565b9050919050565b611b5d81611b42565b8114611b6857600080fd5b50565b600081519050611b7a81611b54565b92915050565b600060208284031215611b9657611b95611448565b5b6000611ba484828501611b6b565b91505092915050565b6000604082019050611bc260008301856114e2565b611bcf6020830184611575565b9392505050565b7f4f776e61626c653a206e6577206f776e657220697320746865207a65726f206160008201527f6464726573730000000000000000000000000000000000000000000000000000602082015250565b6000611c32602683611671565b9150611c3d82611bd6565b604082019050919050565b60006020820190508181036000830152611c6181611c25565b9050919050565b7f4f776e61626c653a2063616c6c6572206973206e6f7420746865206f776e6572600082015250565b6000611c9e602083611671565b9150611ca982611c68565b602082019050919050565b60006020820190508181036000830152611ccd81611c91565b9050919050565b600081519050919050565b60005b83811015611cfd578082015181840152602081019050611ce2565b60008484015250505050565b6000601f19601f8301169050919050565b6000611d2582611cd4565b611d2f8185611671565b9350611d3f818560208601611cdf565b611d4881611d09565b840191505092915050565b60006040820190508181036000830152611d6d8185611d1a565b9050611d7c602083018461159f565b939250505056fea264697066735822122027edd4510bd2356a23f06b23c930a0c2dc5df09e23c3b65f5fa4442425dc6f9764736f6c63430008110033",
  "devdoc": {
    "kind": "dev",
    "methods": {
      "owner()": {
        "details": "Returns the address of the current owner."
      },
      "renounceOwnership()": {
        "details": "Leaves the contract without owner. It will not be possible to call `onlyOwner` functions anymore. Can only be called by the current owner. NOTE: Renouncing ownership will leave the contract without an owner, thereby removing any functionality that is only available to the owner."
      },
      "transferOwnership(address)": {
        "details": "Transfers ownership of the contract to a new account (`newOwner`). Can only be called by the current owner."
      }
    },
    "version": 1
  },
  "userdoc": {
    "kind": "user",
    "methods": {},
    "version": 1
  },
  "storageLayout": {
    "storage": [
      {
        "astId": 7,
        "contract": "contracts/CrowdFundedV2.sol:CrowdFundedV2",
        "label": "_owner",
        "offset": 0,
        "slot": "0",
        "type": "t_address"
      },
      {
        "astId": 1946,
        "contract": "contracts/CrowdFundedV2.sol:CrowdFundedV2",
        "label": "s_goal",
        "offset": 0,
        "slot": "1",
        "type": "t_uint256"
      },
      {
        "astId": 1948,
        "contract": "contracts/CrowdFundedV2.sol:CrowdFundedV2",
        "label": "s_endAt",
        "offset": 0,
        "slot": "2",
        "type": "t_uint32"
      },
      {
        "astId": 1950,
        "contract": "contracts/CrowdFundedV2.sol:CrowdFundedV2",
        "label": "s_pledgedAmount",
        "offset": 0,
        "slot": "3",
        "type": "t_uint256"
      },
      {
        "astId": 1953,
        "contract": "contracts/CrowdFundedV2.sol:CrowdFundedV2",
        "label": "token",
        "offset": 0,
        "slot": "4",
        "type": "t_contract(FundToken)2396"
      },
      {
        "astId": 1957,
        "contract": "contracts/CrowdFundedV2.sol:CrowdFundedV2",
        "label": "s_addressToAmountFunded",
        "offset": 0,
        "slot": "5",
        "type": "t_mapping(t_address,t_uint256)"
      },
      {
        "astId": 1960,
        "contract": "contracts/CrowdFundedV2.sol:CrowdFundedV2",
        "label": "s_funders",
        "offset": 0,
        "slot": "6",
        "type": "t_array(t_address)dyn_storage"
      },
      {
        "astId": 1962,
        "contract": "contracts/CrowdFundedV2.sol:CrowdFundedV2",
        "label": "i_owner",
        "offset": 0,
        "slot": "7",
        "type": "t_address"
      }
    ],
    "types": {
      "t_address": {
        "encoding": "inplace",
        "label": "address",
        "numberOfBytes": "20"
      },
      "t_array(t_address)dyn_storage": {
        "base": "t_address",
        "encoding": "dynamic_array",
        "label": "address[]",
        "numberOfBytes": "32"
      },
      "t_contract(FundToken)2396": {
        "encoding": "inplace",
        "label": "contract FundToken",
        "numberOfBytes": "20"
      },
      "t_mapping(t_address,t_uint256)": {
        "encoding": "mapping",
        "key": "t_address",
        "label": "mapping(address => uint256)",
        "numberOfBytes": "32",
        "value": "t_uint256"
      },
      "t_uint256": {
        "encoding": "inplace",
        "label": "uint256",
        "numberOfBytes": "32"
      },
      "t_uint32": {
        "encoding": "inplace",
        "label": "uint32",
        "numberOfBytes": "4"
      }
    }
  }
}