{
  "address": "0xa90A43af99279BF5D5538c1CaD57e88Eba94036d",
  "abi": [
    {
      "anonymous": false,
      "inputs": [
        {
          "indexed": true,
          "internalType": "address",
          "name": "previousOwner",
          "type": "address"
        },
        {
          "indexed": true,
          "internalType": "address",
          "name": "newOwner",
          "type": "address"
        }
      ],
      "name": "OwnershipTransferred",
      "type": "event"
    },
    {
      "anonymous": false,
      "inputs": [
        {
          "indexed": true,
          "internalType": "address",
          "name": "caller",
          "type": "address"
        },
        {
          "indexed": false,
          "internalType": "uint256",
          "name": "amount",
          "type": "uint256"
        }
      ],
      "name": "Pledge",
      "type": "event"
    },
    {
      "anonymous": false,
      "inputs": [
        {
          "indexed": false,
          "internalType": "uint256",
          "name": "goal",
          "type": "uint256"
        },
        {
          "indexed": false,
          "internalType": "uint32",
          "name": "end",
          "type": "uint32"
        }
      ],
      "name": "ValueChanged",
      "type": "event"
    },
    {
      "inputs": [],
      "name": "balanceOf",
      "outputs": [
        {
          "internalType": "uint256",
          "name": "",
          "type": "uint256"
        }
      ],
      "stateMutability": "view",
      "type": "function"
    },
    {
      "inputs": [],
      "name": "getContractBalance",
      "outputs": [
        {
          "internalType": "uint256",
          "name": "",
          "type": "uint256"
        }
      ],
      "stateMutability": "view",
      "type": "function"
    },
    {
      "inputs": [],
      "name": "getEDate",
      "outputs": [
        {
          "internalType": "uint32",
          "name": "",
          "type": "uint32"
        }
      ],
      "stateMutability": "view",
      "type": "function"
    },
    {
      "inputs": [],
      "name": "getGoal",
      "outputs": [
        {
          "internalType": "uint256",
          "name": "",
          "type": "uint256"
        }
      ],
      "stateMutability": "view",
      "type": "function"
    },
    {
      "inputs": [],
      "name": "getOwner",
      "outputs": [
        {
          "internalType": "address",
          "name": "",
          "type": "address"
        }
      ],
      "stateMutability": "view",
      "type": "function"
    },
    {
      "inputs": [],
      "name": "getPledgeAmount",
      "outputs": [
        {
          "internalType": "uint256",
          "name": "",
          "type": "uint256"
        }
      ],
      "stateMutability": "view",
      "type": "function"
    },
    {
      "inputs": [],
      "name": "getRefundAmount",
      "outputs": [
        {
          "internalType": "uint256",
          "name": "",
          "type": "uint256"
        }
      ],
      "stateMutability": "view",
      "type": "function"
    },
    {
      "inputs": [],
      "name": "i_owner",
      "outputs": [
        {
          "internalType": "address",
          "name": "",
          "type": "address"
        }
      ],
      "stateMutability": "view",
      "type": "function"
    },
    {
      "inputs": [],
      "name": "owner",
      "outputs": [
        {
          "internalType": "address",
          "name": "",
          "type": "address"
        }
      ],
      "stateMutability": "view",
      "type": "function"
    },
    {
      "inputs": [
        {
          "internalType": "uint256",
          "name": "_amount",
          "type": "uint256"
        }
      ],
      "name": "pledge",
      "outputs": [],
      "stateMutability": "nonpayable",
      "type": "function"
    },
    {
      "inputs": [
        {
          "internalType": "uint256",
          "name": "_amount",
          "type": "uint256"
        }
      ],
      "name": "refund",
      "outputs": [],
      "stateMutability": "nonpayable",
      "type": "function"
    },
    {
      "inputs": [],
      "name": "renounceOwnership",
      "outputs": [],
      "stateMutability": "nonpayable",
      "type": "function"
    },
    {
      "inputs": [
        {
          "internalType": "address",
          "name": "",
          "type": "address"
        }
      ],
      "name": "s_addressToAmountFunded",
      "outputs": [
        {
          "internalType": "uint256",
          "name": "",
          "type": "uint256"
        }
      ],
      "stateMutability": "view",
      "type": "function"
    },
    {
      "inputs": [
        {
          "internalType": "uint256",
          "name": "",
          "type": "uint256"
        }
      ],
      "name": "s_funders",
      "outputs": [
        {
          "internalType": "address",
          "name": "",
          "type": "address"
        }
      ],
      "stateMutability": "view",
      "type": "function"
    },
    {
      "inputs": [
        {
          "internalType": "uint256",
          "name": "_goal",
          "type": "uint256"
        },
        {
          "internalType": "uint32",
          "name": "_endAt",
          "type": "uint32"
        },
        {
          "internalType": "address",
          "name": "_token",
          "type": "address"
        }
      ],
      "name": "store",
      "outputs": [],
      "stateMutability": "nonpayable",
      "type": "function"
    },
    {
      "inputs": [
        {
          "internalType": "address",
          "name": "newOwner",
          "type": "address"
        }
      ],
      "name": "transferOwnership",
      "outputs": [],
      "stateMutability": "nonpayable",
      "type": "function"
    },
    {
      "inputs": [
        {
          "internalType": "uint256",
          "name": "_amount",
          "type": "uint256"
        }
      ],
      "name": "withdraw",
      "outputs": [],
      "stateMutability": "nonpayable",
      "type": "function"
    }
  ],
  "transactionHash": "0x5fac2e6a5032db3dc8262d10442d461bc364eae9c5ad137a0c821c5333ae5200",
  "args": [],
  "numDeployments": 1,
  "solcInputHash": "283979a77eeffce2793db3db30c2e192",
  "bytecode": "0x608060405234801561001057600080fd5b5061002d61002261003260201b60201c565b61003a60201b60201c565b6100fe565b600033905090565b60008060009054906101000a900473ffffffffffffffffffffffffffffffffffffffff169050816000806101000a81548173ffffffffffffffffffffffffffffffffffffffff021916908373ffffffffffffffffffffffffffffffffffffffff1602179055508173ffffffffffffffffffffffffffffffffffffffff168173ffffffffffffffffffffffffffffffffffffffff167f8be0079c531659141344cd1fd0a4f28419497f9722a3daafe3b4186f6b6457e060405160405180910390a35050565b611adb8061010d6000396000f3fe608060405234801561001057600080fd5b506004361061010b5760003560e01c80637326c9c0116100a2578063b97a7d2411610071578063b97a7d2414610282578063d350fe1f146102a0578063dba6335f146102be578063dfed2f25146102dc578063f2fde38b146102f85761010b565b80637326c9c01461020c578063812be89b14610228578063893d20e8146102465780638da5cb5b146102645761010b565b806354861af7116100de57806354861af7146101965780636f9fb98a146101c6578063715018a6146101e4578063722713f7146101ee5761010b565b80631bf6132d14610110578063278ecde1146101405780632e1a7d4d1461015c5780633dd1126914610178575b600080fd5b61012a60048036038101906101259190611210565b610314565b6040516101379190611256565b60405180910390f35b61015a6004803603810190610155919061129d565b61032c565b005b6101766004803603810190610171919061129d565b6105c9565b005b610180610917565b60405161018d91906112e9565b60405180910390f35b6101b060048036038101906101ab919061129d565b610931565b6040516101bd9190611313565b60405180910390f35b6101ce610970565b6040516101db9190611256565b60405180910390f35b6101ec610a13565b005b6101f6610a27565b6040516102039190611256565b60405180910390f35b6102266004803603810190610221919061129d565b610acc565b005b610230610ced565b60405161023d9190611256565b60405180910390f35b61024e610cf7565b60405161025b9190611313565b60405180910390f35b61026c610d21565b6040516102799190611313565b60405180910390f35b61028a610d4a565b6040516102979190611256565b60405180910390f35b6102a8610d54565b6040516102b59190611256565b60405180910390f35b6102c6610d9b565b6040516102d39190611313565b60405180910390f35b6102f660048036038101906102f1919061135a565b610dc1565b005b610312600480360381019061030d9190611210565b610f39565b005b60056020528060005260406000206000915090505481565b6000600560003373ffffffffffffffffffffffffffffffffffffffff1673ffffffffffffffffffffffffffffffffffffffff168152602001908152602001600020549050600081116103b3576040517f08c379a00000000000000000000000000000000000000000000000000000000081526004016103aa9061140a565b60405180910390fd5b600260009054906101000a900463ffffffff1663ffffffff16421161040d576040517f08c379a000000000000000000000000000000000000000000000000000000000815260040161040490611476565b60405180910390fd5b600154670de0b6b3a764000060035461042691906114f4565b10610466576040517f08c379a000000000000000000000000000000000000000000000000000000000815260040161045d90611571565b60405180910390fd5b80600360008282546104789190611591565b925050819055506000600560003373ffffffffffffffffffffffffffffffffffffffff1673ffffffffffffffffffffffffffffffffffffffff16815260200190815260200160002081905550600067ffffffffffffffff8111156104df576104de6115c5565b5b60405190808252806020026020018201604052801561050d5781602001602082028036833780820191505090505b5060069080519060200190610523929190611106565b50600460009054906101000a900473ffffffffffffffffffffffffffffffffffffffff1673ffffffffffffffffffffffffffffffffffffffff1663a9059cbb33846040518363ffffffff1660e01b81526004016105819291906115f4565b6020604051808303816000875af11580156105a0573d6000803e3d6000fd5b505050506040513d601f19601f820116820180604052508101906105c49190611655565b505050565b3373ffffffffffffffffffffffffffffffffffffffff16600760009054906101000a900473ffffffffffffffffffffffffffffffffffffffff1673ffffffffffffffffffffffffffffffffffffffff1614610659576040517f08c379a0000000000000000000000000000000000000000000000000000000008152600401610650906116ce565b60405180910390fd5b600260009054906101000a900463ffffffff1663ffffffff1642116106b3576040517f08c379a00000000000000000000000000000000000000000000000000000000081526004016106aa90611476565b60405180910390fd5b60015460035410156106fa576040517f08c379a00000000000000000000000000000000000000000000000000000000081526004016106f19061173a565b60405180910390fd5b60006003819055506000600680548060200260200160405190810160405280929190818152602001828054801561078657602002820191906000526020600020905b8160009054906101000a900473ffffffffffffffffffffffffffffffffffffffff1673ffffffffffffffffffffffffffffffffffffffff168152602001906001019080831161073c575b5050505050905060005b81518110156108115760008282815181106107ae576107ad61175a565b5b602002602001015190506000600560008373ffffffffffffffffffffffffffffffffffffffff1673ffffffffffffffffffffffffffffffffffffffff1681526020019081526020016000208190555050808061080990611789565b915050610790565b50600067ffffffffffffffff81111561082d5761082c6115c5565b5b60405190808252806020026020018201604052801561085b5781602001602082028036833780820191505090505b5060069080519060200190610871929190611106565b50600460009054906101000a900473ffffffffffffffffffffffffffffffffffffffff1673ffffffffffffffffffffffffffffffffffffffff1663a9059cbb33846040518363ffffffff1660e01b81526004016108cf9291906115f4565b6020604051808303816000875af11580156108ee573d6000803e3d6000fd5b505050506040513d601f19601f820116820180604052508101906109129190611655565b505050565b6000600260009054906101000a900463ffffffff16905090565b6006818154811061094157600080fd5b906000526020600020016000915054906101000a900473ffffffffffffffffffffffffffffffffffffffff1681565b6000600460009054906101000a900473ffffffffffffffffffffffffffffffffffffffff1673ffffffffffffffffffffffffffffffffffffffff166370a08231306040518263ffffffff1660e01b81526004016109cd9190611313565b602060405180830381865afa1580156109ea573d6000803e3d6000fd5b505050506040513d601f19601f82011682018060405250810190610a0e91906117e6565b905090565b610a1b610fbc565b610a25600061103a565b565b6000600460009054906101000a900473ffffffffffffffffffffffffffffffffffffffff1673ffffffffffffffffffffffffffffffffffffffff1663dd62ed3e33306040518363ffffffff1660e01b8152600401610a86929190611813565b602060405180830381865afa158015610aa3573d6000803e3d6000fd5b505050506040513d601f19601f82011682018060405250810190610ac791906117e6565b905090565b600260009054906101000a900463ffffffff1663ffffffff16421115610b27576040517f08c379a0000000000000000000000000000000000000000000000000000000008152600401610b1e90611888565b60405180910390fd5b80600560003373ffffffffffffffffffffffffffffffffffffffff1673ffffffffffffffffffffffffffffffffffffffff1681526020019081526020016000206000828254610b7691906118a8565b925050819055506006339080600181540180825580915050600190039060005260206000200160009091909190916101000a81548173ffffffffffffffffffffffffffffffffffffffff021916908373ffffffffffffffffffffffffffffffffffffffff1602179055508060036000828254610bf291906118a8565b92505081905550600460009054906101000a900473ffffffffffffffffffffffffffffffffffffffff1673ffffffffffffffffffffffffffffffffffffffff166323b872dd3330846040518463ffffffff1660e01b8152600401610c58939291906118dc565b6020604051808303816000875af1158015610c77573d6000803e3d6000fd5b505050506040513d601f19601f82011682018060405250810190610c9b9190611655565b503373ffffffffffffffffffffffffffffffffffffffff167f5e91ea8ea1c46300eb761859be01d7b16d44389ef91e03a163a87413cbf55b9582604051610ce29190611256565b60405180910390a250565b6000600354905090565b6000600760009054906101000a900473ffffffffffffffffffffffffffffffffffffffff16905090565b60008060009054906101000a900473ffffffffffffffffffffffffffffffffffffffff16905090565b6000600154905090565b6000600560003373ffffffffffffffffffffffffffffffffffffffff1673ffffffffffffffffffffffffffffffffffffffff16815260200190815260200160002054905090565b600760009054906101000a900473ffffffffffffffffffffffffffffffffffffffff1681565b8260018190555081600260006101000a81548163ffffffff021916908363ffffffff16021790555080600460006101000a81548173ffffffffffffffffffffffffffffffffffffffff021916908373ffffffffffffffffffffffffffffffffffffffff160217905550600460009054906101000a900473ffffffffffffffffffffffffffffffffffffffff1673ffffffffffffffffffffffffffffffffffffffff16638da5cb5b6040518163ffffffff1660e01b8152600401602060405180830381865afa158015610e97573d6000803e3d6000fd5b505050506040513d601f19601f82011682018060405250810190610ebb9190611951565b600760006101000a81548173ffffffffffffffffffffffffffffffffffffffff021916908373ffffffffffffffffffffffffffffffffffffffff1602179055507f1cd1fa9550992626ede71ce57bfe10747b9b908b6ed19e05a4c91807d3794a6a8383604051610f2c92919061197e565b60405180910390a1505050565b610f41610fbc565b600073ffffffffffffffffffffffffffffffffffffffff168173ffffffffffffffffffffffffffffffffffffffff1603610fb0576040517f08c379a0000000000000000000000000000000000000000000000000000000008152600401610fa790611a19565b60405180910390fd5b610fb98161103a565b50565b610fc46110fe565b73ffffffffffffffffffffffffffffffffffffffff16610fe2610d21565b73ffffffffffffffffffffffffffffffffffffffff1614611038576040517f08c379a000000000000000000000000000000000000000000000000000000000815260040161102f90611a85565b60405180910390fd5b565b60008060009054906101000a900473ffffffffffffffffffffffffffffffffffffffff169050816000806101000a81548173ffffffffffffffffffffffffffffffffffffffff021916908373ffffffffffffffffffffffffffffffffffffffff1602179055508173ffffffffffffffffffffffffffffffffffffffff168173ffffffffffffffffffffffffffffffffffffffff167f8be0079c531659141344cd1fd0a4f28419497f9722a3daafe3b4186f6b6457e060405160405180910390a35050565b600033905090565b82805482825590600052602060002090810192821561117f579160200282015b8281111561117e5782518260006101000a81548173ffffffffffffffffffffffffffffffffffffffff021916908373ffffffffffffffffffffffffffffffffffffffff16021790555091602001919060010190611126565b5b50905061118c9190611190565b5090565b5b808211156111a9576000816000905550600101611191565b5090565b600080fd5b600073ffffffffffffffffffffffffffffffffffffffff82169050919050565b60006111dd826111b2565b9050919050565b6111ed816111d2565b81146111f857600080fd5b50565b60008135905061120a816111e4565b92915050565b600060208284031215611226576112256111ad565b5b6000611234848285016111fb565b91505092915050565b6000819050919050565b6112508161123d565b82525050565b600060208201905061126b6000830184611247565b92915050565b61127a8161123d565b811461128557600080fd5b50565b60008135905061129781611271565b92915050565b6000602082840312156112b3576112b26111ad565b5b60006112c184828501611288565b91505092915050565b600063ffffffff82169050919050565b6112e3816112ca565b82525050565b60006020820190506112fe60008301846112da565b92915050565b61130d816111d2565b82525050565b60006020820190506113286000830184611304565b92915050565b611337816112ca565b811461134257600080fd5b50565b6000813590506113548161132e565b92915050565b600080600060608486031215611373576113726111ad565b5b600061138186828701611288565b935050602061139286828701611345565b92505060406113a3868287016111fb565b9150509250925092565b600082825260208201905092915050565b7f4e6f20726566756e6420617661696c61626c6500000000000000000000000000600082015250565b60006113f46013836113ad565b91506113ff826113be565b602082019050919050565b60006020820190508181036000830152611423816113e7565b9050919050565b7f6e6f7420656e6465640000000000000000000000000000000000000000000000600082015250565b60006114606009836113ad565b915061146b8261142a565b602082019050919050565b6000602082019050818103600083015261148f81611453565b9050919050565b7f4e487b7100000000000000000000000000000000000000000000000000000000600052601260045260246000fd5b7f4e487b7100000000000000000000000000000000000000000000000000000000600052601160045260246000fd5b60006114ff8261123d565b915061150a8361123d565b92508261151a57611519611496565b5b828204905092915050565b7f706c6564676564203e20676f616c000000000000000000000000000000000000600082015250565b600061155b600e836113ad565b915061156682611525565b602082019050919050565b6000602082019050818103600083015261158a8161154e565b9050919050565b600061159c8261123d565b91506115a78361123d565b92508282039050818111156115bf576115be6114c5565b5b92915050565b7f4e487b7100000000000000000000000000000000000000000000000000000000600052604160045260246000fd5b60006040820190506116096000830185611304565b6116166020830184611247565b9392505050565b60008115159050919050565b6116328161161d565b811461163d57600080fd5b50565b60008151905061164f81611629565b92915050565b60006020828403121561166b5761166a6111ad565b5b600061167984828501611640565b91505092915050565b7f6e6f74206f776e65720000000000000000000000000000000000000000000000600082015250565b60006116b86009836113ad565b91506116c382611682565b602082019050919050565b600060208201905081810360008301526116e7816116ab565b9050919050565b7f706c6564676564203c20676f616c000000000000000000000000000000000000600082015250565b6000611724600e836113ad565b915061172f826116ee565b602082019050919050565b6000602082019050818103600083015261175381611717565b9050919050565b7f4e487b7100000000000000000000000000000000000000000000000000000000600052603260045260246000fd5b60006117948261123d565b91507fffffffffffffffffffffffffffffffffffffffffffffffffffffffffffffffff82036117c6576117c56114c5565b5b600182019050919050565b6000815190506117e081611271565b92915050565b6000602082840312156117fc576117fb6111ad565b5b600061180a848285016117d1565b91505092915050565b60006040820190506118286000830185611304565b6118356020830184611304565b9392505050565b7f656e646564000000000000000000000000000000000000000000000000000000600082015250565b60006118726005836113ad565b915061187d8261183c565b602082019050919050565b600060208201905081810360008301526118a181611865565b9050919050565b60006118b38261123d565b91506118be8361123d565b92508282019050808211156118d6576118d56114c5565b5b92915050565b60006060820190506118f16000830186611304565b6118fe6020830185611304565b61190b6040830184611247565b949350505050565b600061191e826111b2565b9050919050565b61192e81611913565b811461193957600080fd5b50565b60008151905061194b81611925565b92915050565b600060208284031215611967576119666111ad565b5b60006119758482850161193c565b91505092915050565b60006040820190506119936000830185611247565b6119a060208301846112da565b9392505050565b7f4f776e61626c653a206e6577206f776e657220697320746865207a65726f206160008201527f6464726573730000000000000000000000000000000000000000000000000000602082015250565b6000611a036026836113ad565b9150611a0e826119a7565b604082019050919050565b60006020820190508181036000830152611a32816119f6565b9050919050565b7f4f776e61626c653a2063616c6c6572206973206e6f7420746865206f776e6572600082015250565b6000611a6f6020836113ad565b9150611a7a82611a39565b602082019050919050565b60006020820190508181036000830152611a9e81611a62565b905091905056fea2646970667358221220b29bbda6a1da36caed37b680c03a1061eb07a6c928a05145c61811b698caa87064736f6c63430008110033",
  "devdoc": {
    "kind": "dev",
    "methods": {
      "owner()": {
        "details": "Returns the address of the current owner."
      },
      "renounceOwnership()": {
        "details": "Leaves the contract without owner. It will not be possible to call `onlyOwner` functions anymore. Can only be called by the current owner. NOTE: Renouncing ownership will leave the contract without an owner, thereby removing any functionality that is only available to the owner."
      },
      "transferOwnership(address)": {
        "details": "Transfers ownership of the contract to a new account (`newOwner`). Can only be called by the current owner."
      }
    },
    "version": 1
  },
  "userdoc": {
    "kind": "user",
    "methods": {},
    "version": 1
  },
  "storageLayout": {
    "storage": [
      {
        "astId": 7,
        "contract": "contracts/CrowdFunded.sol:FundContract",
        "label": "_owner",
        "offset": 0,
        "slot": "0",
        "type": "t_address"
      },
      {
        "astId": 1946,
        "contract": "contracts/CrowdFunded.sol:FundContract",
        "label": "s_goal",
        "offset": 0,
        "slot": "1",
        "type": "t_uint256"
      },
      {
        "astId": 1948,
        "contract": "contracts/CrowdFunded.sol:FundContract",
        "label": "s_endAt",
        "offset": 0,
        "slot": "2",
        "type": "t_uint32"
      },
      {
        "astId": 1950,
        "contract": "contracts/CrowdFunded.sol:FundContract",
        "label": "s_pledgedAmount",
        "offset": 0,
        "slot": "3",
        "type": "t_uint256"
      },
      {
        "astId": 1953,
        "contract": "contracts/CrowdFunded.sol:FundContract",
        "label": "token",
        "offset": 0,
        "slot": "4",
        "type": "t_contract(FundedToken)2397"
      },
      {
        "astId": 1957,
        "contract": "contracts/CrowdFunded.sol:FundContract",
        "label": "s_addressToAmountFunded",
        "offset": 0,
        "slot": "5",
        "type": "t_mapping(t_address,t_uint256)"
      },
      {
        "astId": 1960,
        "contract": "contracts/CrowdFunded.sol:FundContract",
        "label": "s_funders",
        "offset": 0,
        "slot": "6",
        "type": "t_array(t_address)dyn_storage"
      },
      {
        "astId": 1962,
        "contract": "contracts/CrowdFunded.sol:FundContract",
        "label": "i_owner",
        "offset": 0,
        "slot": "7",
        "type": "t_address"
      }
    ],
    "types": {
      "t_address": {
        "encoding": "inplace",
        "label": "address",
        "numberOfBytes": "20"
      },
      "t_array(t_address)dyn_storage": {
        "base": "t_address",
        "encoding": "dynamic_array",
        "label": "address[]",
        "numberOfBytes": "32"
      },
      "t_contract(FundedToken)2397": {
        "encoding": "inplace",
        "label": "contract FundedToken",
        "numberOfBytes": "20"
      },
      "t_mapping(t_address,t_uint256)": {
        "encoding": "mapping",
        "key": "t_address",
        "label": "mapping(address => uint256)",
        "numberOfBytes": "32",
        "value": "t_uint256"
      },
      "t_uint256": {
        "encoding": "inplace",
        "label": "uint256",
        "numberOfBytes": "32"
      },
      "t_uint32": {
        "encoding": "inplace",
        "label": "uint32",
        "numberOfBytes": "4"
      }
    }
  }
}