{
  "address": "0x901a306BEEf89C960fD3881Eb6875E4898A7cdBA",
  "abi": [
    {
      "anonymous": false,
      "inputs": [
        {
          "indexed": true,
          "internalType": "address",
          "name": "previousOwner",
          "type": "address"
        },
        {
          "indexed": true,
          "internalType": "address",
          "name": "newOwner",
          "type": "address"
        }
      ],
      "name": "OwnershipTransferred",
      "type": "event"
    },
    {
      "anonymous": false,
      "inputs": [
        {
          "indexed": true,
          "internalType": "address",
          "name": "caller",
          "type": "address"
        },
        {
          "indexed": false,
          "internalType": "uint256",
          "name": "amount",
          "type": "uint256"
        }
      ],
      "name": "Pledge",
      "type": "event"
    },
    {
      "anonymous": false,
      "inputs": [
        {
          "indexed": false,
          "internalType": "uint256",
          "name": "goal",
          "type": "uint256"
        },
        {
          "indexed": false,
          "internalType": "uint32",
          "name": "end",
          "type": "uint32"
        }
      ],
      "name": "ValueChanged",
      "type": "event"
    },
    {
      "inputs": [],
      "name": "balanceOf",
      "outputs": [
        {
          "internalType": "uint256",
          "name": "",
          "type": "uint256"
        }
      ],
      "stateMutability": "view",
      "type": "function"
    },
    {
      "inputs": [],
      "name": "getContractBalance",
      "outputs": [
        {
          "internalType": "uint256",
          "name": "",
          "type": "uint256"
        }
      ],
      "stateMutability": "view",
      "type": "function"
    },
    {
      "inputs": [],
      "name": "getEDate",
      "outputs": [
        {
          "internalType": "uint32",
          "name": "",
          "type": "uint32"
        }
      ],
      "stateMutability": "view",
      "type": "function"
    },
    {
      "inputs": [],
      "name": "getGoal",
      "outputs": [
        {
          "internalType": "uint256",
          "name": "",
          "type": "uint256"
        }
      ],
      "stateMutability": "view",
      "type": "function"
    },
    {
      "inputs": [],
      "name": "getOwner",
      "outputs": [
        {
          "internalType": "address",
          "name": "",
          "type": "address"
        }
      ],
      "stateMutability": "view",
      "type": "function"
    },
    {
      "inputs": [],
      "name": "getPledgeAmount",
      "outputs": [
        {
          "internalType": "uint256",
          "name": "",
          "type": "uint256"
        }
      ],
      "stateMutability": "view",
      "type": "function"
    },
    {
      "inputs": [],
      "name": "getRefundAmount",
      "outputs": [
        {
          "internalType": "uint256",
          "name": "",
          "type": "uint256"
        }
      ],
      "stateMutability": "view",
      "type": "function"
    },
    {
      "inputs": [],
      "name": "getTopPledger",
      "outputs": [
        {
          "internalType": "address",
          "name": "",
          "type": "address"
        },
        {
          "internalType": "uint256",
          "name": "",
          "type": "uint256"
        }
      ],
      "stateMutability": "view",
      "type": "function"
    },
    {
      "inputs": [],
      "name": "getVer",
      "outputs": [
        {
          "internalType": "uint256",
          "name": "",
          "type": "uint256"
        }
      ],
      "stateMutability": "pure",
      "type": "function"
    },
    {
      "inputs": [],
      "name": "i_owner",
      "outputs": [
        {
          "internalType": "address",
          "name": "",
          "type": "address"
        }
      ],
      "stateMutability": "view",
      "type": "function"
    },
    {
      "inputs": [],
      "name": "owner",
      "outputs": [
        {
          "internalType": "address",
          "name": "",
          "type": "address"
        }
      ],
      "stateMutability": "view",
      "type": "function"
    },
    {
      "inputs": [
        {
          "internalType": "uint256",
          "name": "_amount",
          "type": "uint256"
        }
      ],
      "name": "pledge",
      "outputs": [],
      "stateMutability": "nonpayable",
      "type": "function"
    },
    {
      "inputs": [
        {
          "internalType": "uint256",
          "name": "_amount",
          "type": "uint256"
        }
      ],
      "name": "refund",
      "outputs": [],
      "stateMutability": "nonpayable",
      "type": "function"
    },
    {
      "inputs": [],
      "name": "renounceOwnership",
      "outputs": [],
      "stateMutability": "nonpayable",
      "type": "function"
    },
    {
      "inputs": [
        {
          "internalType": "address",
          "name": "",
          "type": "address"
        }
      ],
      "name": "s_addressToAmountFunded",
      "outputs": [
        {
          "internalType": "uint256",
          "name": "",
          "type": "uint256"
        }
      ],
      "stateMutability": "view",
      "type": "function"
    },
    {
      "inputs": [
        {
          "internalType": "uint256",
          "name": "",
          "type": "uint256"
        }
      ],
      "name": "s_funders",
      "outputs": [
        {
          "internalType": "address",
          "name": "",
          "type": "address"
        }
      ],
      "stateMutability": "view",
      "type": "function"
    },
    {
      "inputs": [
        {
          "internalType": "uint256",
          "name": "_goal",
          "type": "uint256"
        },
        {
          "internalType": "uint32",
          "name": "_endAt",
          "type": "uint32"
        },
        {
          "internalType": "address",
          "name": "_token",
          "type": "address"
        }
      ],
      "name": "store",
      "outputs": [],
      "stateMutability": "nonpayable",
      "type": "function"
    },
    {
      "inputs": [
        {
          "internalType": "address",
          "name": "newOwner",
          "type": "address"
        }
      ],
      "name": "transferOwnership",
      "outputs": [],
      "stateMutability": "nonpayable",
      "type": "function"
    },
    {
      "inputs": [
        {
          "internalType": "uint256",
          "name": "_amount",
          "type": "uint256"
        }
      ],
      "name": "withdraw",
      "outputs": [],
      "stateMutability": "nonpayable",
      "type": "function"
    }
  ],
  "transactionHash": "0x477ecd3aa067a2faedf20b41d19c687e5633b7bda01f2e13bca02326e9f4c659",
  "args": [],
  "numDeployments": 1,
  "solcInputHash": "283979a77eeffce2793db3db30c2e192",
  "bytecode": "0x608060405234801561001057600080fd5b5061002d61002261003260201b60201c565b61003a60201b60201c565b6100fe565b600033905090565b60008060009054906101000a900473ffffffffffffffffffffffffffffffffffffffff169050816000806101000a81548173ffffffffffffffffffffffffffffffffffffffff021916908373ffffffffffffffffffffffffffffffffffffffff1602179055508173ffffffffffffffffffffffffffffffffffffffff168173ffffffffffffffffffffffffffffffffffffffff167f8be0079c531659141344cd1fd0a4f28419497f9722a3daafe3b4186f6b6457e060405160405180910390a35050565b611cab8061010d6000396000f3fe608060405234801561001057600080fd5b50600436106101215760003560e01c8063812be89b116100ad578063b97a7d2411610071578063b97a7d24146102d5578063d350fe1f146102f3578063dba6335f14610311578063dfed2f251461032f578063f2fde38b1461034b57610121565b8063812be89b1461023e5780638172e5a01461025c5780638793ad551461027b578063893d20e8146102995780638da5cb5b146102b757610121565b806354861af7116100f457806354861af7146101ac5780636f9fb98a146101dc578063715018a6146101fa578063722713f7146102045780637326c9c01461022257610121565b80631bf6132d14610126578063278ecde1146101565780632e1a7d4d146101725780633dd112691461018e575b600080fd5b610140600480360381019061013b91906113e0565b610367565b60405161014d9190611426565b60405180910390f35b610170600480360381019061016b919061146d565b61037f565b005b61018c6004803603810190610187919061146d565b61061c565b005b61019661096a565b6040516101a391906114b9565b60405180910390f35b6101c660048036038101906101c1919061146d565b610984565b6040516101d391906114e3565b60405180910390f35b6101e46109c3565b6040516101f19190611426565b60405180910390f35b610202610a66565b005b61020c610a7a565b6040516102199190611426565b60405180910390f35b61023c6004803603810190610237919061146d565b610b1f565b005b610246610d40565b6040516102539190611426565b60405180910390f35b610264610d4a565b6040516102729291906114fe565b60405180910390f35b610283610eb9565b6040516102909190611426565b60405180910390f35b6102a1610ec7565b6040516102ae91906114e3565b60405180910390f35b6102bf610ef1565b6040516102cc91906114e3565b60405180910390f35b6102dd610f1a565b6040516102ea9190611426565b60405180910390f35b6102fb610f24565b6040516103089190611426565b60405180910390f35b610319610f6b565b60405161032691906114e3565b60405180910390f35b61034960048036038101906103449190611553565b610f91565b005b610365600480360381019061036091906113e0565b611109565b005b60056020528060005260406000206000915090505481565b6000600560003373ffffffffffffffffffffffffffffffffffffffff1673ffffffffffffffffffffffffffffffffffffffff16815260200190815260200160002054905060008111610406576040517f08c379a00000000000000000000000000000000000000000000000000000000081526004016103fd90611603565b60405180910390fd5b600260009054906101000a900463ffffffff1663ffffffff164211610460576040517f08c379a00000000000000000000000000000000000000000000000000000000081526004016104579061166f565b60405180910390fd5b600154670de0b6b3a764000060035461047991906116ed565b106104b9576040517f08c379a00000000000000000000000000000000000000000000000000000000081526004016104b09061176a565b60405180910390fd5b80600360008282546104cb919061178a565b925050819055506000600560003373ffffffffffffffffffffffffffffffffffffffff1673ffffffffffffffffffffffffffffffffffffffff16815260200190815260200160002081905550600067ffffffffffffffff811115610532576105316117be565b5b6040519080825280602002602001820160405280156105605781602001602082028036833780820191505090505b50600690805190602001906105769291906112d6565b50600460009054906101000a900473ffffffffffffffffffffffffffffffffffffffff1673ffffffffffffffffffffffffffffffffffffffff1663a9059cbb33846040518363ffffffff1660e01b81526004016105d49291906114fe565b6020604051808303816000875af11580156105f3573d6000803e3d6000fd5b505050506040513d601f19601f820116820180604052508101906106179190611825565b505050565b3373ffffffffffffffffffffffffffffffffffffffff16600760009054906101000a900473ffffffffffffffffffffffffffffffffffffffff1673ffffffffffffffffffffffffffffffffffffffff16146106ac576040517f08c379a00000000000000000000000000000000000000000000000000000000081526004016106a39061189e565b60405180910390fd5b600260009054906101000a900463ffffffff1663ffffffff164211610706576040517f08c379a00000000000000000000000000000000000000000000000000000000081526004016106fd9061166f565b60405180910390fd5b600154600354101561074d576040517f08c379a00000000000000000000000000000000000000000000000000000000081526004016107449061190a565b60405180910390fd5b6000600381905550600060068054806020026020016040519081016040528092919081815260200182805480156107d957602002820191906000526020600020905b8160009054906101000a900473ffffffffffffffffffffffffffffffffffffffff1673ffffffffffffffffffffffffffffffffffffffff168152602001906001019080831161078f575b5050505050905060005b81518110156108645760008282815181106108015761080061192a565b5b602002602001015190506000600560008373ffffffffffffffffffffffffffffffffffffffff1673ffffffffffffffffffffffffffffffffffffffff1681526020019081526020016000208190555050808061085c90611959565b9150506107e3565b50600067ffffffffffffffff8111156108805761087f6117be565b5b6040519080825280602002602001820160405280156108ae5781602001602082028036833780820191505090505b50600690805190602001906108c49291906112d6565b50600460009054906101000a900473ffffffffffffffffffffffffffffffffffffffff1673ffffffffffffffffffffffffffffffffffffffff1663a9059cbb33846040518363ffffffff1660e01b81526004016109229291906114fe565b6020604051808303816000875af1158015610941573d6000803e3d6000fd5b505050506040513d601f19601f820116820180604052508101906109659190611825565b505050565b6000600260009054906101000a900463ffffffff16905090565b6006818154811061099457600080fd5b906000526020600020016000915054906101000a900473ffffffffffffffffffffffffffffffffffffffff1681565b6000600460009054906101000a900473ffffffffffffffffffffffffffffffffffffffff1673ffffffffffffffffffffffffffffffffffffffff166370a08231306040518263ffffffff1660e01b8152600401610a2091906114e3565b602060405180830381865afa158015610a3d573d6000803e3d6000fd5b505050506040513d601f19601f82011682018060405250810190610a6191906119b6565b905090565b610a6e61118c565b610a78600061120a565b565b6000600460009054906101000a900473ffffffffffffffffffffffffffffffffffffffff1673ffffffffffffffffffffffffffffffffffffffff1663dd62ed3e33306040518363ffffffff1660e01b8152600401610ad99291906119e3565b602060405180830381865afa158015610af6573d6000803e3d6000fd5b505050506040513d601f19601f82011682018060405250810190610b1a91906119b6565b905090565b600260009054906101000a900463ffffffff1663ffffffff16421115610b7a576040517f08c379a0000000000000000000000000000000000000000000000000000000008152600401610b7190611a58565b60405180910390fd5b80600560003373ffffffffffffffffffffffffffffffffffffffff1673ffffffffffffffffffffffffffffffffffffffff1681526020019081526020016000206000828254610bc99190611a78565b925050819055506006339080600181540180825580915050600190039060005260206000200160009091909190916101000a81548173ffffffffffffffffffffffffffffffffffffffff021916908373ffffffffffffffffffffffffffffffffffffffff1602179055508060036000828254610c459190611a78565b92505081905550600460009054906101000a900473ffffffffffffffffffffffffffffffffffffffff1673ffffffffffffffffffffffffffffffffffffffff166323b872dd3330846040518463ffffffff1660e01b8152600401610cab93929190611aac565b6020604051808303816000875af1158015610cca573d6000803e3d6000fd5b505050506040513d601f19601f82011682018060405250810190610cee9190611825565b503373ffffffffffffffffffffffffffffffffffffffff167f5e91ea8ea1c46300eb761859be01d7b16d44389ef91e03a163a87413cbf55b9582604051610d359190611426565b60405180910390a250565b6000600354905090565b60008060006006805480602002602001604051908101604052809291908181526020018280548015610dd157602002820191906000526020600020905b8160009054906101000a900473ffffffffffffffffffffffffffffffffffffffff1673ffffffffffffffffffffffffffffffffffffffff1681526020019060010190808311610d87575b505050505090506000806000905060005b8351811015610eab576000848281518110610e0057610dff61192a565b5b60200260200101519050600560008273ffffffffffffffffffffffffffffffffffffffff1673ffffffffffffffffffffffffffffffffffffffff16815260200190815260200160002054831015610e9757600560008273ffffffffffffffffffffffffffffffffffffffff1673ffffffffffffffffffffffffffffffffffffffff1681526020019081526020016000205492508093505b508080610ea390611959565b915050610de2565b508181945094505050509091565b600080600290508091505090565b6000600760009054906101000a900473ffffffffffffffffffffffffffffffffffffffff16905090565b60008060009054906101000a900473ffffffffffffffffffffffffffffffffffffffff16905090565b6000600154905090565b6000600560003373ffffffffffffffffffffffffffffffffffffffff1673ffffffffffffffffffffffffffffffffffffffff16815260200190815260200160002054905090565b600760009054906101000a900473ffffffffffffffffffffffffffffffffffffffff1681565b8260018190555081600260006101000a81548163ffffffff021916908363ffffffff16021790555080600460006101000a81548173ffffffffffffffffffffffffffffffffffffffff021916908373ffffffffffffffffffffffffffffffffffffffff160217905550600460009054906101000a900473ffffffffffffffffffffffffffffffffffffffff1673ffffffffffffffffffffffffffffffffffffffff16638da5cb5b6040518163ffffffff1660e01b8152600401602060405180830381865afa158015611067573d6000803e3d6000fd5b505050506040513d601f19601f8201168201806040525081019061108b9190611b21565b600760006101000a81548173ffffffffffffffffffffffffffffffffffffffff021916908373ffffffffffffffffffffffffffffffffffffffff1602179055507f1cd1fa9550992626ede71ce57bfe10747b9b908b6ed19e05a4c91807d3794a6a83836040516110fc929190611b4e565b60405180910390a1505050565b61111161118c565b600073ffffffffffffffffffffffffffffffffffffffff168173ffffffffffffffffffffffffffffffffffffffff1603611180576040517f08c379a000000000000000000000000000000000000000000000000000000000815260040161117790611be9565b60405180910390fd5b6111898161120a565b50565b6111946112ce565b73ffffffffffffffffffffffffffffffffffffffff166111b2610ef1565b73ffffffffffffffffffffffffffffffffffffffff1614611208576040517f08c379a00000000000000000000000000000000000000000000000000000000081526004016111ff90611c55565b60405180910390fd5b565b60008060009054906101000a900473ffffffffffffffffffffffffffffffffffffffff169050816000806101000a81548173ffffffffffffffffffffffffffffffffffffffff021916908373ffffffffffffffffffffffffffffffffffffffff1602179055508173ffffffffffffffffffffffffffffffffffffffff168173ffffffffffffffffffffffffffffffffffffffff167f8be0079c531659141344cd1fd0a4f28419497f9722a3daafe3b4186f6b6457e060405160405180910390a35050565b600033905090565b82805482825590600052602060002090810192821561134f579160200282015b8281111561134e5782518260006101000a81548173ffffffffffffffffffffffffffffffffffffffff021916908373ffffffffffffffffffffffffffffffffffffffff160217905550916020019190600101906112f6565b5b50905061135c9190611360565b5090565b5b80821115611379576000816000905550600101611361565b5090565b600080fd5b600073ffffffffffffffffffffffffffffffffffffffff82169050919050565b60006113ad82611382565b9050919050565b6113bd816113a2565b81146113c857600080fd5b50565b6000813590506113da816113b4565b92915050565b6000602082840312156113f6576113f561137d565b5b6000611404848285016113cb565b91505092915050565b6000819050919050565b6114208161140d565b82525050565b600060208201905061143b6000830184611417565b92915050565b61144a8161140d565b811461145557600080fd5b50565b60008135905061146781611441565b92915050565b6000602082840312156114835761148261137d565b5b600061149184828501611458565b91505092915050565b600063ffffffff82169050919050565b6114b38161149a565b82525050565b60006020820190506114ce60008301846114aa565b92915050565b6114dd816113a2565b82525050565b60006020820190506114f860008301846114d4565b92915050565b600060408201905061151360008301856114d4565b6115206020830184611417565b9392505050565b6115308161149a565b811461153b57600080fd5b50565b60008135905061154d81611527565b92915050565b60008060006060848603121561156c5761156b61137d565b5b600061157a86828701611458565b935050602061158b8682870161153e565b925050604061159c868287016113cb565b9150509250925092565b600082825260208201905092915050565b7f4e6f20726566756e6420617661696c61626c6500000000000000000000000000600082015250565b60006115ed6013836115a6565b91506115f8826115b7565b602082019050919050565b6000602082019050818103600083015261161c816115e0565b9050919050565b7f6e6f7420656e6465640000000000000000000000000000000000000000000000600082015250565b60006116596009836115a6565b915061166482611623565b602082019050919050565b600060208201905081810360008301526116888161164c565b9050919050565b7f4e487b7100000000000000000000000000000000000000000000000000000000600052601260045260246000fd5b7f4e487b7100000000000000000000000000000000000000000000000000000000600052601160045260246000fd5b60006116f88261140d565b91506117038361140d565b9250826117135761171261168f565b5b828204905092915050565b7f706c6564676564203e20676f616c000000000000000000000000000000000000600082015250565b6000611754600e836115a6565b915061175f8261171e565b602082019050919050565b6000602082019050818103600083015261178381611747565b9050919050565b60006117958261140d565b91506117a08361140d565b92508282039050818111156117b8576117b76116be565b5b92915050565b7f4e487b7100000000000000000000000000000000000000000000000000000000600052604160045260246000fd5b60008115159050919050565b611802816117ed565b811461180d57600080fd5b50565b60008151905061181f816117f9565b92915050565b60006020828403121561183b5761183a61137d565b5b600061184984828501611810565b91505092915050565b7f6e6f74206f776e65720000000000000000000000000000000000000000000000600082015250565b60006118886009836115a6565b915061189382611852565b602082019050919050565b600060208201905081810360008301526118b78161187b565b9050919050565b7f706c6564676564203c20676f616c000000000000000000000000000000000000600082015250565b60006118f4600e836115a6565b91506118ff826118be565b602082019050919050565b60006020820190508181036000830152611923816118e7565b9050919050565b7f4e487b7100000000000000000000000000000000000000000000000000000000600052603260045260246000fd5b60006119648261140d565b91507fffffffffffffffffffffffffffffffffffffffffffffffffffffffffffffffff8203611996576119956116be565b5b600182019050919050565b6000815190506119b081611441565b92915050565b6000602082840312156119cc576119cb61137d565b5b60006119da848285016119a1565b91505092915050565b60006040820190506119f860008301856114d4565b611a0560208301846114d4565b9392505050565b7f656e646564000000000000000000000000000000000000000000000000000000600082015250565b6000611a426005836115a6565b9150611a4d82611a0c565b602082019050919050565b60006020820190508181036000830152611a7181611a35565b9050919050565b6000611a838261140d565b9150611a8e8361140d565b9250828201905080821115611aa657611aa56116be565b5b92915050565b6000606082019050611ac160008301866114d4565b611ace60208301856114d4565b611adb6040830184611417565b949350505050565b6000611aee82611382565b9050919050565b611afe81611ae3565b8114611b0957600080fd5b50565b600081519050611b1b81611af5565b92915050565b600060208284031215611b3757611b3661137d565b5b6000611b4584828501611b0c565b91505092915050565b6000604082019050611b636000830185611417565b611b7060208301846114aa565b9392505050565b7f4f776e61626c653a206e6577206f776e657220697320746865207a65726f206160008201527f6464726573730000000000000000000000000000000000000000000000000000602082015250565b6000611bd36026836115a6565b9150611bde82611b77565b604082019050919050565b60006020820190508181036000830152611c0281611bc6565b9050919050565b7f4f776e61626c653a2063616c6c6572206973206e6f7420746865206f776e6572600082015250565b6000611c3f6020836115a6565b9150611c4a82611c09565b602082019050919050565b60006020820190508181036000830152611c6e81611c32565b905091905056fea2646970667358221220263d90a38831c1a9a7bac3114e8b4194d4fb1478da0b69dd4e5b402c3d2fa4c264736f6c63430008110033",
  "devdoc": {
    "kind": "dev",
    "methods": {
      "owner()": {
        "details": "Returns the address of the current owner."
      },
      "renounceOwnership()": {
        "details": "Leaves the contract without owner. It will not be possible to call `onlyOwner` functions anymore. Can only be called by the current owner. NOTE: Renouncing ownership will leave the contract without an owner, thereby removing any functionality that is only available to the owner."
      },
      "transferOwnership(address)": {
        "details": "Transfers ownership of the contract to a new account (`newOwner`). Can only be called by the current owner."
      }
    },
    "version": 1
  },
  "userdoc": {
    "kind": "user",
    "methods": {},
    "version": 1
  },
  "storageLayout": {
    "storage": [
      {
        "astId": 7,
        "contract": "contracts/CrowdFundedV2.sol:FundContractV2",
        "label": "_owner",
        "offset": 0,
        "slot": "0",
        "type": "t_address"
      },
      {
        "astId": 1946,
        "contract": "contracts/CrowdFundedV2.sol:FundContractV2",
        "label": "s_goal",
        "offset": 0,
        "slot": "1",
        "type": "t_uint256"
      },
      {
        "astId": 1948,
        "contract": "contracts/CrowdFundedV2.sol:FundContractV2",
        "label": "s_endAt",
        "offset": 0,
        "slot": "2",
        "type": "t_uint32"
      },
      {
        "astId": 1950,
        "contract": "contracts/CrowdFundedV2.sol:FundContractV2",
        "label": "s_pledgedAmount",
        "offset": 0,
        "slot": "3",
        "type": "t_uint256"
      },
      {
        "astId": 1953,
        "contract": "contracts/CrowdFundedV2.sol:FundContractV2",
        "label": "token",
        "offset": 0,
        "slot": "4",
        "type": "t_contract(FundedToken)2397"
      },
      {
        "astId": 1957,
        "contract": "contracts/CrowdFundedV2.sol:FundContractV2",
        "label": "s_addressToAmountFunded",
        "offset": 0,
        "slot": "5",
        "type": "t_mapping(t_address,t_uint256)"
      },
      {
        "astId": 1960,
        "contract": "contracts/CrowdFundedV2.sol:FundContractV2",
        "label": "s_funders",
        "offset": 0,
        "slot": "6",
        "type": "t_array(t_address)dyn_storage"
      },
      {
        "astId": 1962,
        "contract": "contracts/CrowdFundedV2.sol:FundContractV2",
        "label": "i_owner",
        "offset": 0,
        "slot": "7",
        "type": "t_address"
      }
    ],
    "types": {
      "t_address": {
        "encoding": "inplace",
        "label": "address",
        "numberOfBytes": "20"
      },
      "t_array(t_address)dyn_storage": {
        "base": "t_address",
        "encoding": "dynamic_array",
        "label": "address[]",
        "numberOfBytes": "32"
      },
      "t_contract(FundedToken)2397": {
        "encoding": "inplace",
        "label": "contract FundedToken",
        "numberOfBytes": "20"
      },
      "t_mapping(t_address,t_uint256)": {
        "encoding": "mapping",
        "key": "t_address",
        "label": "mapping(address => uint256)",
        "numberOfBytes": "32",
        "value": "t_uint256"
      },
      "t_uint256": {
        "encoding": "inplace",
        "label": "uint256",
        "numberOfBytes": "32"
      },
      "t_uint32": {
        "encoding": "inplace",
        "label": "uint32",
        "numberOfBytes": "4"
      }
    }
  }
}